:100000000EC015C014C013C012C011C010C00FC064
:100010000EC00DC00CC00BC00AC009C008C011241E
:100020001FBECFE5D2E0DEBFCDBF5DD098C0E8CF28
:10003000FC0197B18081892387B997B18281892B8F
:1000400087B997B18481892387B986819781019780
:1000500009F4379A80859185019709F4369A0895B5
:100060000F931F9300E010E0980106171707280769
:10007000390759F0ECE1F0E13197F1F700C00000E9
:100080000F5F1F4F2F4F3F4FF0CF1F910F910895DC
:100090000F931F9300E010E0980106171707280739
:1000A000390749F045E04A95F1F700C00F5F1F4F4F
:1000B0002F4F3F4FF2CF1F910F910895CF92DF92B4
:1000C000EF92FF92C19A6C01990FEE08FF08C701E9
:1000D000B601C6DFC198C701B601C2DFFF90EF903D
:1000E000DF90CF900895AAE0B0E0E8E7F0E02BC001
:1000F0008FE390E09A83898381E090E09C838B83F7
:1001000020EF30E03E832D8398878F839A878987FD
:10011000CE0101968DDFB99A369BFECF84EF91E038
:10012000CDDF369AF9CF2F923F924F925F926F9226
:100130007F928F929F92AF92BF92CF92DF92EF9277
:10014000FF920F931F93CF93DF93CDB7DEB7CA1BF8
:10015000DB0B0FB6F894DEBF0FBECDBF0994F89449
:02016000FFCFCF
:00000001FF
